:020000040800F2
:100000000009002001010008AF180008B51400081D
:10001000AD180008A5080008BD1A0008000000007F
:10002000000000000000000000000000211A00088D
:10003000F908000800000000B1180008231A0008A1
:100040001B0100081B0100081B0100081B01000820
:100050001B0100081B0100081B0100081B01000810
:100060001B0100081B0100081B0100081B01000800
:100070001B0100081B0100081B0100081B010008F0
:100080001B0100081B0100081B0100081B010008E0
:100090001B0100081B0100081B0100081B010008D0
:1000A0001B0100081B0100081B0100081B010008C0
:1000B0001B0100081B0100081B0100081B010008B0
:1000C0001B0100081B0100081B0100081B010008A0
:1000D0001B0100081B0100081B0100081B01000890
:1000E000FB0800081B0100081B010008DFF80CD00A
:1000F00000F072FB004800471124000800090020AE
:100100000648804706480047FEE7FEE7FEE7FEE7B1
:10011000FEE7FEE7FEE7FEE7FEE7FEE7751A0008EA
:10012000ED000008202A04DB203A21FA02F0002129
:10013000704721FA02F3D040C2F1200291400843F7
:1001400019467047D2B201E000F8012B491EFBD2DC
:1001500070470022F6E710B513460A4604461946D2
:10016000FFF7F0FF204610BD80EA010210B502F053
:100170000043400022D04A001FD0010E01EB126163
:10018000C0F35600C2F3560240F4000042F40002ED
:10019000A0FB022000047F39140400D0401C50EA68
:1001A000124001D44000491EC2B20C0604EBD0102C
:1001B000401C4008802A02D003E0002010BD20F03F
:1001C0000100002900DA0020184310BD2DE9FE4F80
:1001D00081EA030404F0004421F0004100944FF050
:1001E000000B23F0004350EA01045ED052EA0304FE
:1001F0005BD0C3F30A54C1F30A552C44A4F2F33480
:100200000194A0FB0254C1F3130141F48011C3F324
:10021000130343F4801301FB024400FB034E840AE2
:10022000970A44EA815447EA8357A4FB076802957A
:100230008D0A05FB07854FEA932C04FB0C54270518
:10024000029D4FEA065847EA1637B5EB08056EEBF4
:10025000070C870E920E47EA811742EA8312A7FB2A
:100260000201B6EB0B0164EB00042B0D43EA0C33E7
:100270005E1844EB1C50DA465146E7FB0201C5F319
:1002800013044FEA0B3343EA14534FEA0432019C40
:1002900043EA0603A4F10C040294009CCDE900B4E7
:1002A00000F075F903B0BDE8F08F00200146F9E7D2
:1002B0002DE9F04D81EA030404F0004B21F00045E4
:1002C00014464FF0000A23F0004150EA050220D006
:1002D00054EA01021DD0C5F30A570246C5F31303C1
:1002E000C1F31300C1F30A5640F4801543F48013A0
:1002F000A7EB0608101BD64608F2FD3873EB050085
:1003000002D308F1010801E092185B41B8F1000F37
:1003100003DA00200146BDE8F08D00204FF4801183
:10032000064684460EE0171B73EB050705D3121B28
:1003300063EB050306434CEA010C49084FEA300021
:1003400092185B4150EA0107EDD152EA030012D046
:1003500082EA040083EA0501084305D0101BAB4183
:1003600006D20122002306E000224FF0004302E003
:100370006FF0010253101AEB06004CEB085110EB22
:100380000A0041EB0B01BDE8F04D00F0F1B870B58B
:1003900021F0004303430CD0C1F30A550024D5EBF0
:1003A000040564EB0403D617AD1AB34102DB002049
:1003B000014670BD201841EB025170BDC10F80EAAB
:1003C000E0700844CA079623002100F0A3B89623E2
:1003D0000022114600F09EB820F00040C10DC0F38D
:1003E000160040F400007F2901DA002070479629AA
:1003F00003DCC1F19601C8407047963988407047C8
:1004000000F0004230F000400AD0C10D01F56071EB
:10041000C0F3160042EA0151C20840071143704779
:1004200000200146704701F0004330B421F0004144
:1004300050EA010206D00A0DA2F56072C1F3130161
:10044000002A02DC30BC00207047440F44EAC1049B
:10045000C100E01830BC00EBC25000F052B8000000
:10046000002801DBC0F10040002901DBC1F100419F
:100470008842704730B50B460146002020220124F7
:1004800009E021FA02F59D4205D303FA02F5491B62
:1004900004FA02F52844151EA2F10102F1DC30BD78
:1004A0002DE9F05F0546002092469B4688460646A9
:1004B000814640241BE02846414647462246FFF736
:1004C00031FE53465A46C01A914110D31146184680
:1004D000224600F093F92D1A67EB01084F46224699
:1004E0000120002100F08AF917EB00094E41201E7F
:1004F000A4F10104DFDC484631462A464346BDE804
:10050000F09F0029A8BF7047401C490008BF20F099
:100510000100704710B4B0FA80FC00FA0CF050EA09
:10052000010404BF10BC704749B1CCF1200421FA8A
:1005300004F411FA0CF118BF012121430843A3EB85
:100540000C01CB1D4FEA00614FEA102042BF002092
:1005500010BC704700EBC35010440029A4BF10BC6E
:100560007047401C490008BF20F0010010BC7047D4
:1005700010B5141E73F1000408DA401C41F10001AB
:1005800092185B411A4301D120F0010010BD2DE902
:10059000F04D92469B4611B1B1FA81F202E0B0FAF9
:1005A00080F22032904600F029F904460F4640EAD6
:1005B0000A0041EA0B0153465A46084313D011463C
:1005C00053EA010019D0C8F140025046FFF7AAFDD6
:1005D00005460E4650465946424600F00FF908437C
:1005E00005D0012004E020463946BDE8F08D00200A
:1005F000054346EAE0762C4337430A986305E40A4C
:10060000A0EB08000022FD0A44EA47540A3002D554
:1006100000200146E9E7010510196941DDE90845B7
:1006200000196941BDE8F04DA2E72DE9FE4F804673
:1006300081EA0300C00F0C46009021F0004123F036
:100640000045B8EB0200A94105D24046214690463C
:100650001C460B46024623F00040104347D0270DAE
:10066000C7F30A00C3F30A510290401A01904028D0
:100670006BDAC3F3130040F4801B0098924620B15C
:100680000023D2EB030A63EB0B0B01985946C0F130
:100690004002504600F0B2F806460D465046594614
:1006A000019A00F0BAF810EB08006141002487EAD3
:1006B000115284EAE7731A4340D0009A62B3019A58
:1006C000012A4FEA075215DC001B61EB02014FF0D3
:1006D000004202EA0752CDE90042001C41F58011B8
:1006E00032462B46FFF753FF03B0BDE8F08F40467C
:1006F0002146F9E7001B61EB0201001C41F5801364
:1007000000185B412018A2F5001747EB030140EAEF
:10071000D570B6196D4111E06D084FEA360645EA0D
:10072000C0754FEA0752001B61EB0201001C41F546
:10073000801149084FEA30000019514132462B46DA
:1007400003B0BDE8F04FFFF713BF0098012240004F
:100750000023D0EB020263EBE073009821464FEADE
:10076000E074B8EB000061EB0401E9E783F00043BB
:100770005BE781F0004158E7C1F30A52C1F313016E
:1007800040F2FF3341F480119A4202DA0020014620
:10079000704740F233439A42A2F2334202DC5242A3
:1007A000FFF7C0BC00F02AB830B5041E71F1000498
:1007B00004DB4FF00044404264EB0101141E73F16E
:1007C000000405DB1C464FF00043524263EB040378
:1007D000994208BF904230BD064C074D06E0E068E4
:1007E00040F0010394E8070098471034AC42F6D378
:1007F000FFF780FCC43B0008E43B0008202A04DB30
:10080000203A00FA02F1002070479140C2F1200323
:1008100020FA03F3194390407047202A06DBCB17D8
:10082000203A41FA02F043EAE07306E041FA02F3AB
:10083000D040C2F1200291400843194670470000A1
:1008400070B5164C4FF4005604F114006168124D57
:1008500050F82100FFF7B2FD2169FFF701FE14D81F
:100860003146284600F07BF9642000F04BF8314611
:10087000284600F074F90A492069FFF775FCFFF774
:10088000ABFDBDE8704000F03DB831462846BDE8FC
:100890007040012200F06AB9001001400000002001
:1008A00000004842FEE70000064A10B553680649BA
:1008B000064C0968B1FBF4F141435068C01A884204
:1008C000FBD310BD001000E04400002040420F00A8
:1008D00007480168C9010AD4016841F080710160CC
:1008E000044800214160016841F001010160704746
:1008F000FCED00E0001000E070474FF4005000F005
:100900002DB8000070B5044600F036F90546601CAD
:1009100002D004480078044400F02EF9401BA042A5
:10092000FAD370BD3800002010B5B0F5005F12D1C9
:1009300000F022F9084CA168401A64280BD36068C3
:10094000022801D2401C00E00020606000F0B2FFED
:1009500000F012F9A06010BD00000020044910B59D
:100960000A68024202D00860FFF7DEFF10BD0000F7
:10097000140401402DE9F84FDFF8B891002409F183
:10098000040A0AF1040B23460F270BF1040EC9E0F9
:100990000125A5402A40AA427DD1674ED1F804C066
:1009A000ACEB0608B44532D014DCBCF1030F3AD0EE
:1009B00009DCBCF1000F2AD0BCF1010F1CD0BCF146
:1009C000020F31D11DE0BCF1110F17D0BCF1120F95
:1009D0002AD119E0B8F5881F19D006DCB8F5803F98
:1009E00015D0B8F5801F1FD111E0B8F5001F0ED04B
:1009F000B8F5041F18D10AE0CB6815E0CB681B1DC1
:100A000012E0CB6808330FE0CB680C330CE08B6846
:100A10002BB1012B4FF0080303D0456104E0042300
:100A200002E0056100E00023FF2A01D8064601E04C
:100A300000F104064FEA840501D9A5F12005D6F896
:100A4000008007FA05FC28EA0C0803FA05F548EAD5
:100A50000508C6F800804D68ED0062D5374DAE69D7
:100A600046F00106AE61AD6924F0030605F001050C
:100A70000095334D06EB050CDCF80850A607360F41
:100A800007FA06F825EA0805DFF8B880404503D1E3
:100A90004FF0000817E044E0DFF8AC80404502D199
:100AA0004FF001080FE0DFF8A480404502D14FF07D
:100AB000020808E0DFF89880404502D14FF00308B3
:100AC00001E04FF0040808FA06F848EA0508CCF8F7
:100AD00008804D68D9F80060ED034D4601D51643F6
:100AE00000E096432E604D68DAF80060AD0355468D
:100AF00001D5164300E096432E604D68DBF8006098
:100B0000ED025D4601D5164300E096432E604D6828
:100B1000DEF80060AD02754601D5164300E096434D
:100B20002E60641C0D682A46E5407FF431AFBDE8B5
:100B3000F88F000000040140000011100010024076
:100B40000000014000080140000C0140001001407D
:100B5000001401408068084000D001207047C2683E
:100B60000A4201D041617047016170470AB10161D9
:100B700070470904FBE700000148806870470000E7
:100B80003800002070B504001BD094F83D0000250B
:100B900020B984F83C50204600F046F9242084F81F
:100BA0003D002068016821F00101016000F098FA21
:100BB0004D4A6168914201D84C4900E04C49884255
:100BC00001D2012070BD4B492368B0FBF1F15E6892
:100BD00026F03F060E435E606368934206D94FF4E9
:100BE000967359434FF47A73B1FBF3F12368491CB0
:100BF0001E6A26F03F06314319626168914210D89F
:100C00004900401EB0FBF1F2521CC2F30B02042A51
:100C100001D2042022E0B0FBF1F0401CC0F30B0035
:100C20001CE0A368F3B301EBC10202EB0116421E04
:100C3000B2FBF6F2521C42F48042120549D093B343
:100C400001EBC10202EB0111401EB0FBF1F0401CB0
:100C5000C0F30B0040F4804040F400402168CA69B2
:100C60004CF6FF739A431043C861D4E90701084367
:100C700021680A6822F0C00210430860D4E9030129
:100C800001432068826848F2FF339A431143816030
:100C9000D4E9050108432168CA6822F0FF02104325
:100CA000C86001E00EE016E02068016841F0010133
:100CB00001602564202084F83D00256384F83E50BF
:100CC000002070BD01EB4106421EB2FBF6F2521C41
:100CD000B3E70120C2E701EB4101401EB0FBF1F098
:100CE000401CC0F30B00B7E7A086010080841E0003
:100CF00000093D0040420F002DE9FF4F83B09A46A6
:100D0000DDE9119793460446DDF84080FFF734FF94
:100D1000054694F83D0020287FD11923012240493F
:100D20002046009500F04EFC002876D194F83C0057
:100D3000012872D0012084F83C0020680168C907AE
:100D400003D1016841F0010101602068016821F4CC
:100D500000610160212084F83D00402084F83E00BD
:100D600000262664C4F82480A4F82A90608D20858B
:100D70002C48E062CDE9007553465A462046049956
:100D800000F0B0FB70B930E02A463946204600F04A
:100D900098FC58B1206C042804D12068016841F403
:100DA00000710160012007B0BDE8F08F606A216822
:100DB00000780861606A401C6062218D491E89B21A
:100DC0002185628D521E628522685369DB435B0771
:100DD0000BD469B100781061606A401C6062208D9C
:100DE000401E2085608D401E6085208D0028CBD15F
:100DF0002A463946204600F0BFFB0028CAD154F8E5
:100E00003D0B016841F400710160202004F81E09C7
:100E1000E67766770020C6E7FFE70220C3E7000019
:100E2000020010000000FFFF10B586B00021009105
:100E300001910291039100680F4988421AD10F4C29
:100E4000A06940F00800A061A069694600F00800B0
:100E50000490C020009012200190032003900848C5
:100E6000FFF788FDE06940F40010E061E06900F4FC
:100E70000010049006B010BD005400400010024065
:100E8000000C01400248816802781144816070477B
:100E900038000020074810B5016841F010010160DA
:100EA000032000F075F8002000F006F800F024F8A8
:100EB000002010BD0020024070B50D4D04464FF4D7
:100EC0007A712878B1FBF0F00A490968B1FBF0F0BB
:100ED00000F0DCFA48B9102C07D200222146501E3F
:100EE00000F036F800206C6070BD012070BD00007D
:100EF00038000020440000200C4808B5816941F00A
:100F000001018161816901F001010091C16941F034
:100F10008051C161C06900F0805000900448416870
:100F200021F0E06141F08061416008BD00100240A5
:100F300000000140002809DB00F01F020121914060
:100F40004009800000F1E020C0F800117047000067
:100F5000F0B40E4B1B680C46C3F30223C3F1070524
:100F6000042D00D90425191D072901D2002300E012
:100F7000DB1E012606FA05F1491E214099409E40DC
:100F8000761E16403143F0BC00F0AEBD0CED00E023
:100F9000064900F0070208684FF6FF03184040EAD0
:100FA0000220034A10430860704700000CED00E087
:100FB0000000FA052DE9F0470F46050061D0434EC9
:100FC000306800F00700B84209D2306820F007000E
:100FD00038433060306800F00700B84251D12868CB
:100FE0003B4C810712D5400703D5606840F4E060B0
:100FF00060602878000703D5606840F46050606046
:101000006068A96820F0F000084360602878C00795
:1010100028D06868012810D02168022810D08907DC
:1010200000292EDA616821F0030101436160FFF7B6
:10103000A3FD804641F288390DE021688903EFE77E
:101040008901EDE7FFF798FDA0EB0801494502D9BA
:101050000320BDE8F0876068696800F00C00B0EB21
:10106000810FEFD1306800F00700B8420BD930682B
:1010700020F0070038433060306800F00700B842C5
:1010800001D00120E5E72878400705D56068E968C8
:1010900020F4E060084360602878000706D56068A7
:1010A000296920F4605040EAC100606000F028F82F
:1010B0006168084AC1F30311515CC84006490860E1
:1010C00006480068FFF7F8FE0020C2E70020024053
:1010D00000100240AC3B0008440000203C0000200F
:1010E0000448054900684968044AC1F30221515C7B
:1010F000C84070474400002000100240BC3B00087C
:1011000012A185B00FC98DE80F0014A0144A006821
:1011100004905168134801F00C03042B10D0082BE5
:101120000ED1C1F38343C9031DF803000AD55168EA
:1011300004AAC1F34041515C0A4A5043B0FBF1F0AC
:1011400005B0704708494843FAE700000203040568
:10115000060708090A0B0C0D0E0F10100102000003
:101160000010024000127A0000093D002DE9F84FFE
:10117000040070D02078C04DC00749D06868C0F323
:101180008100012807D06868C0F38100022809D1D6
:101190006868C00306D52868800339D560680028D0
:1011A000E7D035E06068B0F5803F0BD010B1B0F506
:1011B000A02F11D0286820F480302860286820F4FF
:1011C000802002E0286840F480302860606890B198
:1011D000FFF7D2FC06460AE0286840F48020286029
:1011E000F0E700BFFFF7C8FC801B642873D82868AD
:1011F0008003F7D50CE0FFF7BFFC064605E000BF13
:10120000FFF7BAFC801B6428F0D828688003F7D465
:1012100020789A4E80074FF001094FF0000839D529
:10122000686810F00C0F07D06868C0F381000228CE
:1012300009D16868C00306D42868800714D52069DE
:10124000012808D110E02069B0B1C6F80090FFF77E
:1012500093FC074605E00AE1FFF78EFCC01B02285D
:10126000C4D828688007F7D52868616920F0F8009D
:1012700040EAC10028600DE0C6F80080FFF77CFC62
:10128000074604E0FFF778FCC01B022823D8286833
:101290008007F7D4207800072CD57948A169D9B107
:1012A000C0F80090FFF768FC074604E0FFF764FC15
:1012B000C01B02280FD8686A8007F7D571484FF421
:1012C000FA510068B0FBF1F0009000BF0098411E99
:1012D0000091FAD20EE080E0C0F80080FFF74CFCED
:1012E000074604E0FFF748FCC01B022875D8686A6F
:1012F0008007F7D42078400760D5E8690027C00050
:1013000008D4E86940F08050E861E869012700F0FE
:10131000805000905C480168C90513D40168834679
:1013200041F480710160FFF727FC824606E000BFB0
:10133000FFF722FCA0EB0A0064284ED8DBF800007F
:10134000C005F5D5E06801280AD008B1052813D0FA
:10135000286A20F001002862286A20F0040002E0D8
:10136000286A40F001002862E06841F2883B98B1A9
:10137000FFF702FC82460BE0286A40F00400286276
:10138000EEE700BFFFF7F8FBA0EB0A0159455AD87A
:10139000286A8007F6D50CE0FFF7EEFB824605E0F1
:1013A000FFF7EAFBA0EB0A0159454CD8286A8007F1
:1013B000F6D41FB1E86920F08050E861E06988B395
:1013C0006968C1F38101022944D00228C6F860800F
:1013D00004D0FFF7D1FB044638E034E0FFF7CCFB44
:1013E000074604E0FFF7C8FBC01B02282BD828687B
:1013F0008001F7D4206AB0F5803F05D16868A16804
:1014000020F4003008436860D4E9080108436968A3
:1014100021F4741108436860C6F86090FFF7ACFBD4
:10142000044606E025E000BFFFF7A6FB001B0228EC
:1014300009D828688001F7D51BE000BFFFF79CFBA7
:10144000001B022802D90320BDE8F88F286880011C
:10145000F4D40EE00128F7D06868226A00F48031E5
:10146000914204D1616A00F47010884201D00120D9
:10147000EAE70020E8E700000010024000004242D6
:1014800080044242440000200070004010B5401E1D
:10149000B0F1807F01D3012010BD4FF0E0246061E6
:1014A0000F21601700F020FB0020A06107202061C1
:1014B000002010BDFEE701684A69D24352050FD4EF
:1014C0006FF480624A61002140F8301F202242738D
:1014D0008173026942F004020261017301207047C6
:1014E000002070472DE9F843044600680D46DDE909
:1014F000089701689846164641F4807101604B4692
:1015000000224FF001112046009700F05BF8E0B98F
:10151000216805F0FE0008613B464A461549204611
:1015200000F084F888B920684169806900903A46E3
:101530004946204600F0C5F850B1206C042804D17B
:101540002068016841F4007101600120BDE8F88362
:10155000F5B2B8F1010F09D02168300A08613A46A6
:101560004946204600F0ADF80028E6D12068056124
:101570000020EBE70200010070B516460D46044658
:101580000DE02046FFF797FF08B1012070BD681CF1
:1015900005D0FFF7F1FA801BA84207D835B12068C3
:1015A0004069C0434007ECD4002070BD002044F8DF
:1015B000300F20216173A073216941F02001216166
:1015C0002073E2E72DE9F0471E4690460D4604469B
:1015D000C1F30747DDF8209008E0701C06D0FFF744
:1015E000CBFAA0EB0900B0420FD876B12068012FEA
:1015F00018D0806925EA00000004000C14D00021F6
:101600004145EAD00020BDE8F087002044F8300FC3
:1016100020216173A073216941F0200121612073B1
:101620000120F0E74069E5E70121E9E72DE9F0470E
:101630009A4691460E46044600254FF02008C1F315
:10164000074725E020684069C043400514D420685E
:10165000016841F40071016021686FF480604861A5
:10166000256384F83D8084F83E50206C40F00400EF
:10167000206484F83C501FE0B9F1FF3F08D0FFF729
:101680007BFAA0EB0A0149450CD8B9F1000F09D04B
:101690002068012F13D0806926EA00000004000CA6
:1016A0000BD0CFE744F8305F84F80D80A573206934
:1016B00040F02000206125730120BDE8F0874069DB
:1016C000EAE770B516460D4604460DE02046FFF7E2
:1016D000F2FE08B1012070BD681C05D0FFF74CFA7E
:1016E000801BA84207D835B120684069C043000676
:1016F000ECD4002070BD002044F8300F202161732D
:10170000A073216941F0200121612073E2E700000C
:101710002DE9F041002000F0C7FE0021202000F05C
:1017200039FF1B4C01231BA0D4E9001200F0C4FFB9
:101730001821022000F02EFFD4E90012012317A087
:1017400000F0BAFF3021462000F024FFD4E9001257
:10175000012319A000F0B0FF00F022FF194D002472
:101760004FF400564FF4FA7731462846FFF7F7F961
:101770006420FFF7C7F831462846FFF7F0F93846EE
:10178000FFF7C0F8641C032CEEDBBDE8F08100001D
:101790002800002057656C636F6D65005061726BA7
:1017A000696E672044697374616E636520436F6E70
:1017B00074726F6C000000004C6974746C656F7219
:1017C00000000000001001402DE9F04385B0002426
:1017D00031480094019402940394816941F010010E
:1017E0008161816901F010010491816941F020015A
:1017F0008161816901F020010491816941F0040156
:101800008161816901F004010491816941F008015D
:1018100081618069DFF8848000F008004FF4005592
:101820000490002229464046FFF7A0F9DFF87090A7
:10183000002240214846FFF799F902270126039725
:101840000095CDE9016469464046FFF793F84020D2
:10185000CDE90006CDE9024769464846FFF78AF818
:101860008020CDE90004694648460294FFF782F8DB
:101870000C480095CDE9010469460B48FFF77AF85A
:10188000002211462820FFF763FB2820FFF752FBB8
:1018900005B0BDE8F08300000010024000100140D8
:1018A0000008014000001110000C0140FEE77047E5
:1018B000704700002DE9F041384E394F4FF0FF38A6
:1018C000384C394D002000F0EFFD0021022000F0DF
:1018D00061FE226835A1501C2060374800F0F0F806
:1018E000D5E900120123344800F0E6FE616804F1F6
:1018F000140050F82100FEF761FD2169FEF7B0FDEC
:10190000E0681DD8FEF763FDFEF77AFD32463B46E0
:10191000FEF75CFC4246FEF73AFD02460B4627A165
:10192000254800F0CDF81021142000F033FE2548A2
:101930000123D0E90012204800F0BEFE30211BE058
:10194000FEF745FDFEF75CFD32463B46FEF73EFCEA
:101950004246FEF71CFD02460B461BA1164800F04E
:10196000AFF81021022000F015FED5E90012012386
:10197000114800F0A1FE2021022000F00BFE17A16B
:101980000D48626800F09CF8D5E9001201230A486E
:1019900000F092FEBDE8F04100F002BE9CC420B011
:1019A0007268A13F000000202800002054696D6586
:1019B0003A202564000000009C00002020252E32E3
:1019C00066636D003000002044697374616E636566
:1019D0003A20252E3266636D000000004D6F64656D
:1019E0003A2025640000000010B500F0EBFC094C23
:1019F000E060FEF7ECFCFEF703FD074A074BFEF73D
:101A0000E5FB4FF0FF32FEF7C2FCFEF70CFD206154
:101A100010BD0000000000209CC420B07268A13FEF
:101A20007047FFF72FBA30B58FB028216846FEF710
:101A300090FB14210AA8FEF78CFB01210804CDE9D4
:101A400000100024029402250491CDE907504FF4C0
:101A5000E01009906846FFF789FB0F20CDE90A05E1
:101A60006802CDE90C4002210AA80E94FFF7A2FA01
:101A70000FB030BD0D48016841F0010101604168BF
:101A80000B4A1140416001680A4A11400160016837
:101A900021F480210160416821F4FE0141604FF48E
:101AA0001F0181600449C0030860704700100240B4
:101AB0000000FFF8FFFFF6FE08ED00E0FEE7000083
:101AC0000FB4084B10B504A902AA039800F0DEF881
:101AD000044602A9002000F070FC204610BC5DF80E
:101AE00014FB0000BB2300080907090E002804DBD3
:101AF00000F1E02080F80014704700F00F0000F1C2
:101B0000E02080F8141D704702E008C8121F08C1C9
:101B1000002AFAD170477047002001E001C1121F6E
:101B2000002AFBD1704700002DE9FF5FDDE90220AC
:101B3000010DDDF838B0024318D044F61050A1F280
:101B4000FF3141430D140F98012820D0A5EB0B0065
:101B5000401C5FEA000A4FF00004474EDFF81C917A
:101B6000A046504616D5CAF1000728E00F98012478
:101B700043A2012808D0002100980F9BC0E9002152
:101B8000C0E90243BDE8FF9F6FEA0B01F4E7CBF128
:101B90000000DEE7074612E0F80707D0224633468A
:101BA00040464946FEF712FB8046894622463346A8
:101BB00010461946FEF70AFB04460E467F10002F1A
:101BC000EAD1DDE90201BAF1000F42464B4602DAE2
:101BD000FEF7FCFA01E0FEF76BFB04460E4600221E
:101BE000284BFEF7E1FD03D84FF0FF30014607E038
:101BF0000022254B20463146FEF717FDFEF7BCFDBF
:101C0000102409E0002C0ADB0A220023FEF748FC1E
:101C1000019B30321A55641E50EA0102F2D1641C55
:101C2000019AC4F1110314440F9A012A03D001222E
:101C300008430DD10AE0084304D000204FF0110BF7
:101C40000F9080E7A3EB0B056D1E0DE05B4504DDF7
:101C50004FF0000205F1010504E003DA4FF0000245
:101C6000A5F10105002AECD000980F99C0E90231D6
:101C7000C0E9004586E70000000024400000F03F76
:101C8000300000000000F0430000E03F2DE9FF4F6E
:101C900095B09B468946064600250FE2252877D158
:101CA00000242746F84A0121059400E0044316F871
:101CB000013F203B01FA03F01042F7D130782A2887
:101CC00011D06FF02F033078A0F13002092A16D816
:101CD000059A44F0020402EB820203EB4202104434
:101CE000761C0590EFE759F8042B0592002A03DAD9
:101CF000504244F40054059044F00204761C3078BD
:101D00002E2816D116F8010F44F004042A280DD00D
:101D10006FF02F023078A0F13003092B09D807EBC0
:101D2000870302EB4303C718761CF3E759F8047BDB
:101D3000761C30786C280FD006DC4C2817D0682829
:101D40000DD06A2814D104E0742810D07A280FD15D
:101D50000DE044F400140AE044F4801401E044F47B
:101D600040147278824202D104F58014761C761CED
:101D7000307866280BD013DC582877D009DC00288F
:101D800075D04528F6D04628F4D047281AD19DE1D1
:101D900018E0632835D0642879D0652812D195E100
:101DA000702873D008DC6728F1D069286FD06E28BE
:101DB0000DD06F2806D1B5E073282CD0752875D0CA
:101DC000782874D05A46179990476D1C75E1C4F372
:101DD0000250022809D003280DD0D9F80010042899
:101DE0000DD00D6009F1040967E1D9F80010EA1778
:101DF000C1E90052F6E7D9F800100D80F2E70D7046
:101E0000F0E719F8041B8DF8001000208DF8010090
:101E1000EA46012003E059F804AB4FF0FF306107B8
:101E20004FF0000102D40DE008F101018846B942EB
:101E30000FDA8045F8DB1AF808100029F4D108E021
:101E400008F1010188468142FADB1AF808100029DE
:101E5000F6D105985B46A0EB080721463846179A4D
:101E600000F094FA284400EB080507E04DE029E172
:101E70000DE01AF8010B5A4617999047B8F101087E
:101E8000F7D25B4621463846179A13E142E00A2210
:101E90000092C4F302524FF0000A022A08D059F807
:101EA00004CB032A4FEAEC710AD00DE029E02AE0C6
:101EB00009F1070121F00702F2E802C1914609E0A9
:101EC0000FFA8CFC4FEAEC71042A03D14FFA8CFC18
:101ED0004FEAEC71002907DA0A460021DCF1000C18
:101EE00061EB02012D2202E0220504D52B228DF8A0
:101EF0000420012203E0E20701D02022F7E7904608
:101F000059E00A2102E010220DE010214FF0000AF2
:101F100000910BE010224FF0000A44F0040408275F
:101F2000009203E008224FF0000A0092C4F302522C
:101F3000022A05D059F804CB0021032A08D009E071
:101F400009F1070121F00702F2E802C1914605E01C
:101F50001FFA8CFC042A01D10CF0FF0C4FF0000892
:101F6000220728D5702806D0009B83F0100353EA7F
:101F70000A0305D00EE040228DF80420012208E07B
:101F80005CEA010206D030228DF804208DF80500AD
:101F900002229046009B83F0080353EA0A030AD109
:101FA0005CEA010201D1620705D530228DF80420D8
:101FB0004FF001087F1E582804D034A003900EA8CB
:101FC00002900DE036A0F9E753466046009AFEF70E
:101FD00067FA84460398825C0298401E0290027061
:101FE0005CEA0100F0D1029806A9081A00F1200A63
:101FF000600702D524F4803400E00127574502DD54
:10200000A7EB0A0000E0002000EB0A010090059811
:102010004144401A0590E00306D45B462146179AD6
:10202000059800F0B3F90544002706E001A85A46D8
:10203000C05D179990476D1C7F1C4745F6DBE00398
:102040000CD55B462146179A059800F09FF9054488
:1020500004E030205A46179990476D1C0099481E9D
:1020600000900029F5DC08E0029802995A460078B1
:10207000491C0291179990476D1CBAF10001AAF111
:10208000010AF1DC65E1000009280100303132333A
:1020900034353637383961626364656600000000A4
:1020A000303132333435363738394142434445468E
:1020B0000000000000F058F90544761C3078002834
:1020C0007FF4ECAD19B02846BDE8F08F620700D46C
:1020D000062709F1070222F0070CFCE80223E1467B
:1020E00003F000485FEA080C02D00FF2702C0DE0FC
:1020F0005FEA045C02D50FF2682C07E05FEAC47C5B
:1021000002D00FF2602C01E0AFF2700C4FF0FF38FC
:1021100023F00043CDF850C065280CD006DC4528DC
:1021200009D046281DD047283DD13DE0662818D06B
:1021300067287ED138E00021112F01DB112000E05B
:10214000781CCDE9000106A90EA8FFF7EDFCDDE93A
:102150000F010E9A03910021009207F1010A0491E8
:102160004DE04FF000400097CDE9011006A90EA800
:10217000FFF7DAFCDDE90F0203920E9B11990022B2
:10218000DDF80CA00093049211B9791C00EB010A50
:10219000B7EB0A0004D4C0F1FF3007F1010A049044
:1021A000AAEB0700019044E0012F00DA012700218B
:1021B000112F01DD112000E03846CDE9000106A90C
:1021C0000EA8FFF7B1FCDDE90F010E9A0391002183
:1021D00004910092BA4621070CD40399514500DAC4
:1021E0008A46BAF1010F05DD009AAAF10101515C9E
:1021F000302908D0B84202DA10F1040F06DA0121C2
:10220000CDE9011015E0AAF10101E9E7002805DC9C
:10221000049901440491AAEB000102E0411C5145DC
:1022200000DD8A460499401A401C01904FF000409E
:102230000290200704D40198504501DBCDF80480BA
:1022400000208DF84F0002980DF14F07B0F1004FBC
:1022500025D02B200E9002984FF0020800280CDAAF
:10226000404202902D200E9007E00A210298FEF7CE
:1022700001F93031029007F8011DB8F10001A8F111
:102280000108F2DC02980028EFD1791E0E98087040
:10229000307800F0200040F0450007F8020D12A849
:1022A000C01B00F107081498007800B1012000EB72
:1022B0000A01019801EBE07105984144401A401E63
:1022C0000590E00306D45B462146179A059800F076
:1022D0005DF805441498007818B15A46179990474C
:1022E0006D1CE00324D55B462146179A059800F043
:1022F0004DF805441CE00498002807DBDDE90301E4
:10230000884203DD0098405C179901E0179930205E
:102310005A469047049805F10105401C0490019825
:10232000401E019004D12E205A46179990476D1CEB
:10233000BAF10001AAF1010ADDDC05E017F8010B92
:102340005A46179990476D1CB8F10001A8F1010891
:10235000F4DC5B462146179A0598ABE62D00000099
:102360002B000000200000002DE9F041044600256C
:102370001E461746880404D405E039462020B0479D
:102380006D1C641EF9D52846BDE8F0812DE9F041A9
:10239000044600251E469046C80301D5302700E0BC
:1023A0002027880404D505E041463846B0476D1C17
:1023B000641EF9D52846BDE8F0810A68531C0B60FD
:1023C0001070704770B5114D00240122402128463D
:1023D000FEF7CCFB0A20FEF767FA002240212846D0
:1023E000FEF7C4FB80212846FEF7B4FB0028F9D095
:1023F00003E00120641CFEF757FA80212846FEF70F
:10240000A9FB0028F5D1204670BD0000000801405E
:10241000FEF740FDFFF707FBFFF7D6F910480F491D
:102420004FF4804201600F49416000218160C0E9A2
:10243000031241618161C1610162FEF7A3FBFEF7F6
:1024400047FA00F041F8FFF763F900BFFFF7CCFA55
:10245000FFF730FAFEF7F4F9F8E700000054004007
:1024600048000020A086010070B5802813D24029C2
:1024700011D20B4B012401F007051E79AC40094B2A
:10248000C90800EBC1100EB132B101E0012A03D03E
:10249000195CA143195470BD195C2143FAE700008F
:1024A000200000200001002010B5064A00214FF452
:1024B000806328B1FF245454491C9942F9D310BDBC
:1024C0000024F8E70001002010B56420FEF71AFA96
:1024D000AE2000F0CFF8202000F0CCF8102000F063
:1024E000C9F8B02000F0C6F8C82000F0C3F80020FA
:1024F00000F0C0F8102000F0BDF8402000F0BAF85D
:10250000812000F0B7F8FF2000F0B4F8A12000F01F
:10251000B1F8A62000F0AEF8A82000F0ABF83F20FC
:1025200000F0A8F8A42000F0A5F8D32000F0A2F84D
:10253000002000F09FF8D52000F09CF8F02000F07B
:1025400099F8D92000F096F8222000F093F8DA20CC
:1025500000F090F8122000F08DF8DB2000F08AF8EF
:10256000202000F087F88D2000F084F8142000F07F
:1025700081F8AF2000F07EF80020FFF795FF00F013
:102580000FF803480021018041800121417110BDF5
:1025900020000020014A1080518070472000002058
:1025A00070B50C4D002400BF04F1B000C0B200F0C3
:1025B00061F8002000F05EF8102000F05BF805EBF9
:1025C000C410802100F068F8641CE4B2082CEBD33E
:1025D00070BD0000000100202DE9FF4F8346244814
:1025E0009246CEB202883244802A06D28146408882
:1025F000C1F307273844402803D3002004B0BDE8C6
:10260000F08F002528E000BFABF1200000FB075051
:1026100000243AF810801CE008FA04F0000409D500
:1026200099F8021099F8000029442044C9B2C0B2B8
:10263000039A0BE00398C0B15FF0000299F8021012
:1026400099F8000029442044C9B2C0B2FFF70CFF3A
:10265000641CA642E0D86D1CAF42D5D8B9F8001072
:1026600058463144A9F80010C8E70122E6E7000007
:102670002000002001B584B001214FF0FF3204A8F2
:102680008DE807000B46002278210248FEF734FB54
:1026900005B000BD480000200EB54FF0FF3289B2F2
:1026A0008DE807000123402278210248FEF724FB31
:1026B0000EBD000048000020F0B51D460E4617462E
:1026C00004460AE02B463A463146FFF785FF21785B
:1026D000884201D0C8B2F0BD641C20780028F1D136
:1026E000C0B2F0BD000000000000000000000000CB
:1026F000000000000000000000100010001000109A
:102700000010001000000010000000000028002849
:102710000028000000000000000000000000000091
:1027200000240024007C00240048007C004800486D
:10273000000000000038005400500038001400541D
:1027400000540038001000000020005400580030F1
:1027500000280054001400080000000000100028A9
:102760000028001000340048004800340000000039
:102770000010001000100000000000000000000029
:1027800000000000000800100020002000200020B1
:1027900000200020001000080020001000080008A1
:1027A0000008000800080008001000200010003891
:1027B00000100028000000000000000000000000E1
:1027C0000000000000100010007C0010001000004D
:1027D00000000000000000000000000000000000F9
:1027E00000000010001000100000000000000000B9
:1027F00000000038000000000000000000000000A1
:1028000000000000000000000000001000000000B8
:102810000008000800100010001000100020002028
:10282000000000000038004400440054004400440C
:10283000004400380000000000100030005000107C
:1028400000100010001000100000000000380044CC
:1028500000440004000800100020007C000000007C
:10286000003800440004001800040004004400384C
:102870000000000000080018002800280048007C24
:102880000008000800000000007C004000400078C4
:102890000004000400440038000000000038004438
:1028A000004000780044004400440038000000006C
:1028B000007C000400080010001000200020002010
:1028C0000000000000380044004400380044004488
:1028D0000044003800000000003800440044004478
:1028E000003C00040044003800000000000000002C
:1028F00000100000000000000000001000000000B8
:1029000000000000000000100000000000000010A7
:102910000010001000000000000C003000400030EB
:10292000000C000000000000000000000000007C1F
:102930000000007C0000000000000000000000001B
:102940000060001800040018006000000000000093
:1029500000380044000400080010001000000010BF
:102960000000000000380044004C0054005C0040AF
:102970000040003800000000001000280028002857
:102980000028007C0044004400000000007800445F
:102990000044007800440044004400780000000037
:1029A000003800440040004000400040004400382F
:1029B000000000000070004800440044004400444F
:1029C0000048007000000000007C00400040007CD7
:1029D000004000400040007C00000000007C0040FF
:1029E000004000780040004000400040000000002F
:1029F0000038004400400040005C004400440038BF
:102A000000000000004400440044007C00440044F6
:102A100000440044000000000038001000100010C6
:102A20000010001000100038000000000004000436
:102A3000000400040004000400440038000000000A
:102A40000044004800500060005000480048004426
:102A500000000000004000400040004000400040F6
:102A60000040007C000000000044006C006C00543A
:102A7000004400440044004400000000004400649E
:102A8000006400540054004C004C0044000000005E
:102A9000003800440044004400440044004400382E
:102AA000000000000078004400440044007800402A
:102AB0000040004000000000003800440044004492
:102AC0000044004400540038000400000078004432
:102AD0000044004400780048004800440000000022
:102AE0000038004400400030000800040044003872
:102AF00000000000007C001000100010001000100A
:102B00000010001000000000004400440044004495
:102B10000044004400440038000000000044004429
:102B200000440028002800280010001000000000C9
:102B300000440044005400540054006C0028002855
:102B400000000000004400280028001000100028A9
:102B50000028004400000000004400440028002831
:102B6000001000100010001000000000007C0004A5
:102B700000080010001000200040007C0000000051
:102B800000180010001000100010001000100010BD
:102B9000001000180020002000100010001000108D
:102BA00000080008000000000030001000100010B5
:102BB000001000100010001000100030001000285D
:102BC0000028004400000000000000000000000099
:102BD00000000000000000000000000000000000F5
:102BE000000000FE002000100000000000000000B7
:102BF0000000000000000000000000000038004459
:102C0000003C0044004C0034000000000040004044
:102C100000580064004400440064005800000000B4
:102C2000000000000038004400400040004400382C
:102C300000000000000400040034004C0044004484
:102C4000004C003400000000000000000038004488
:102C5000007C00400044003800000000000C001020
:102C6000007C001000100010001000100000000098
:102C7000000000000034004C00440044004C0034CC
:102C80000004007800400040005800640044004404
:102C9000004400440000000000100000007000101C
:102CA00000100010001000100000000000100000D4
:102CB000007000100010001000100010001000E064
:102CC00000400040004800500060005000480044B0
:102CD0000000000000700010001000100010001034
:102CE00000100010000000000000000000780054F8
:102CF0000054005400540054000000000000000084
:102D000000580064004400440044004400000000F7
:102D10000000000000380044004400440044003833
:102D2000000000000000000000580064004400445F
:102D30000064005800400040000000000034004CD7
:102D400000440044004C0034000400040000000073
:102D500000580064004000400040004000000000B7
:102D60000000000000380044003000080044003833
:102D7000000000000020002000780020002000203B
:102D80000020001800000000000000000044004483
:102D900000440044004C003400000000000000002B
:102DA0000044004400280028002800100000000013
:102DB00000000000005400540054006C002800285B
:102DC0000000000000000000004400280010001077
:102DD00000280044000000000000000000440044FF
:102DE0000028002800100010001000600000000003
:102DF000007C0008001000200040007C0000000063
:102E0000001800100010001000200020001000101A
:102E1000001000180010001000100010001000102A
:102E20000010001000100010003000100010001002
:102E30000008000800100010001000300000000022
:102E400000000074004C00000000000000000000C2
:102E50000000000000000000000000000000000072
:102E60000000000000000000000000000000000062
:102E7000000000000000000C000C000C000C000C16
:102E8000000C000C000C000C000C000C0000000CEE
:102E9000000C0000000000000000001B001B001BD5
:102EA000001B001B000000000000000000000000EC
:102EB0000000000000000000000000000000801979
:102EC000801980198019C07FC07F80190033C07FAE
:102ED000C07F0033003300330033000000000000E7
:102EE0000000001E003F807580650074003C001EDD
:102EF00000078005806580658075003F001E000426
:102F0000000400000000007000D840D8C0D880D96C
:102F100000730006000C801BC036C066C046C006A9
:102F200080030000000000000000001E003F00338E
:102F300000330033001E000CC03CC066806380611B
:102F40008063C03E801C0000000000000000000CF8
:102F5000000C000C000C000C000000000000000041
:102F60000000000000000000000000000000000061
:102F7000800000010003000600060004000C000CA5
:102F8000000C000C000C000C0004000600060003FE
:102F900000018000002000100018000C000C00044C
:102FA0000006000600060006000600060004000CED
:102FB000000C0018001000200000000C002D003F45
:102FC000001E0033000000000000000000000000B0
:102FD00000000000000000000000000000000000F1
:102FE0000000000C000C000C000CC0FFC0FF000C27
:102FF000000C000C000C00000000000000000000AD
:1030000000000000000000000000000000000000C0
:1030100000000000000000000000000C000C000494
:103020000004000800000000000000000000000094
:10303000000000000000001E001E00000000000054
:103040000000000000000000000000000000000080
:103050000000000000000000000000000000000070
:103060000000000C000C0000000000000000000345
:10307000000300030006000600060006000C000C1A
:10308000000C000C001800180018000000000000E0
:103090000000001E003F0033806180618061806D10
:1030A000806D8061806180610033003F001E000000
:1030B0000000000000000006000E001E0036002682
:1030C00000060006000600060006000600060006D0
:1030D00000060000000000000000001E003F80739A
:1030E00080618061800100030006000C0018003040
:1030F0000060807F807F0000000000000000001C56
:10310000003E006300630003000E000E0003800118
:10311000800180618073003F001E000000000000FD
:1031200000000006000E000E001E001E00160036F5
:1031300000360066807F807F0006000600060000E3
:10314000000000000000007F007F00600060006061
:10315000006E007F80638001800180618073003F8A
:10316000001E0000000000000000001E003F803331
:1031700080610060006E007F80738061806180618B
:103180008033003F001E0000000000000000807F30
:10319000807F80010003000300060006000C000C85
:1031A000000C0008001800180018000000000000C3
:1031B0000000001E003F8063806180610021001ECE
:1031C000003F8061806180618061003F001E0000DF
:1031D000000000000000001E003F0073806180615D
:1031E00080618073803F801D800180610073003F9B
:1031F000001E0000000000000000000000000000B1
:103200000000000C000C00000000000000000000A6
:103210000000000C000C0000000000000000000096
:103220000000000000000000000C000C0000000086
:10323000000000000000000C000C00040004000866
:10324000000000000000000080008003000E003835
:1032500000600038000E80038000000000000000C5
:103260000000000000000000000000000000807F5F
:10327000807F00000000807F807F00000000000051
:10328000000000000000000000000000000000003E
:1032900000400070001C000780010007001C007047
:1032A0000040000000000000000000000000001FBF
:1032B000803FC071C060C000C00180030007000EE5
:1032C000000C000C0000000C000C000000000000CE
:1032D0000000001E003F803180718063806F806D30
:1032E000806D806F806700600032003E001C00002F
:1032F000000000000000000E000E001B001B001B61
:10330000001B80318031803F803F8031C060C060D1
:10331000C0600000000000000000007C007E006330
:10332000006300630063007E007E00638061806153
:103330008063007F007E0000000000000000001E8F
:10334000003F8031806100600060006000600060CC
:10335000006080618031003F001E0000000000001E
:103360000000007C007F0063806380618061806179
:1033700080618061806100630063007E007C0000EA
:10338000000000000000807F807F0060006000601F
:103390000060007F007F0060006000600060807F50
:1033A000807F0000000000000000807F807F0060C0
:1033B000006000600060007F007F006000600060CF
:1033C0000060006000600000000000000000001EBF
:1033D000003F803180610060006000608063806336
:1033E000806180618031803F001E0000000000008D
:1033F0000000806180618061806180618061807F88
:10340000807F806180618061806180618061000077
:10341000000000000000003F003F000C000C000C0A
:10342000000C000C000C000C000C000C000C003F09
:10343000003F0000000000000000800180018001CA
:1034400080018001800180018001800180618061B4
:103450008073003F001E0000000000000000C060FC
:103460008061006300660066006C0078007C006686
:103470000066006380618061C060000000000000A1
:10348000000000600060006000600060006000609C
:1034900000600060006000600060807F807F00004E
:1034A000000000000000C071C071C07BC07AC06A1B
:1034B000C06AC06EC064C060C060C060C060C060F0
:1034C000C060000000000000000080718071807901
:1034D00080798079806D806D806D80658067806780
:1034E0008067806380630000000000000000001E11
:1034F000003F003380618061806180618061806114
:10350000806180610033003F001E00000000000069
:103510000000007E007F8063806180618061806345
:10352000007F007E006000600060006000600000BE
:10353000000000000000001E003F00338061806139
:103540008061806180618061806580670033803F39
:10355000401E0000000000000000007E007F80632D
:10356000806180618063007F007E0066006300638D
:1035700080618061C0600000000000000000000E5B
:10358000001F8031803100300038001E00078003AA
:10359000806180618031003F001E0000000000005B
:1035A0000000C0FFC0FF000C000C000C000C000C61
:1035B000000C000C000C000C000C000C000C0000B7
:1035C0000000000000008061806180618061806196
:1035D0008061806180618061806180618073003F73
:1035E000001E0000000000000000C060C060C0605D
:1035F000803180318031001B001B001B001B000E3E
:10360000000E000E00040000000000000000C0C01A
:10361000C0C0C0C0C0C0C0C0C0CC804C804C805EA8
:103620008052805280738061806100000000000041
:103630000000C0C0806080610033003B001E000CB1
:10364000000C001E001F003B80718061C0C00000A4
:10365000000000000000C0C08061806100330033C2
:10366000001E001E000C000C000C000C000C000CD6
:10367000000C0000000000000000803F803F80013F
:10368000000300030006000C000C001800180030B6
:103690000060807F807F000000000000000F000FAE
:1036A000000C000C000C000C000C000C000C000CBA
:1036B000000C000C000C000C000C000C000F000FA4
:1036C0000000001800180018000C000C000C000C82
:1036D00000060006000600060003000300030000C9
:1036E00000000000001E001E000600060006000686
:1036F000000600060006000600060006000600069A
:1037000000060006001E001E0000000C000C001E3B
:10371000001200330033806180610000000000006F
:103720000000000000000000000000000000000099
:103730000000000000000000000000000000000089
:10374000000000000000000000000000E0FF00009A
:10375000000000380018000C00000000000000000D
:103760000000000000000000000000000000000059
:103770000000000000000000000000000000001F2A
:10378000803F80618001801F803F80618063807FF7
:10379000C038000000000000000000600060006011
:1037A0000060006E007F8073806180618061806155
:1037B0008073007F006E0000000000000000000029
:1037C000000000000000001E003F80738061006068
:1037D000006080618073003F001E00000000000058
:1037E00000008001800180018001801D803F807386
:1037F00080618061806180618073803F801D0000F6
:103800000000000000000000000000000000001E9A
:10381000003F00738061807F807F00608071003F87
:10382000001E0000000000000000C007C00F000CD8
:10383000000C807F807F000C000C000C000C000C42
:10384000000C000C000C0000000000000000000054
:1038500000000000801D803F807380618061806176
:1038600080618073803F801D80018063007F003E07
:1038700000000060006000600060006F807F807169
:103880008061806180618061806180618061000011
:103890000000000000000006000600000000003EDE
:1038A000003E0006000600060006000600060006B0
:1038B00000060000000000000006000600000000F6
:1038C000003E003E00060006000600060006000658
:1038D0000006000600060046007E003C0000006076
:1038E000006000600060806100630066006C007C26
:1038F0000076006300638061C0600000000000008B
:103900000000003E003E000600060006000600061D
:10391000000600060006000600060006000600007D
:10392000000000000000000000000000000080DD3A
:10393000C0FFC0CEC0CCC0CCC0CCC0CCC0CCC0CCF2
:10394000C0CC0000000000000000000000000000EB
:103950000000006F807F8071806180618061806184
:1039600080618061806100000000000000000000B4
:10397000000000000000001E003F80738061806135
:10398000806180618073003F001E00000000000025
:103990000000000000000000006E007F8073806166
:1039A0008061806180618073007F006E00600060D4
:1039B000006000600000000000000000801D803FEB
:1039C000807380618061806180618073803F801D31
:1039D00080018001800180010000000000000000E3
:1039E00000000067803F00390030003000300030B8
:1039F0000030003000300000000000000000000037
:103A0000000000000000001E803F80610060007F19
:103A1000803F80018061007F001E000000000000E8
:103A200000000000000800180018007F007F001848
:103A300000180018001800180018801F800F0000E0
:103A40000000000000000000000000000000806195
:103A50008061806180618061806180618063807F3E
:103A6000803D000000000000000000000000000099
:103A70000000C060803180318031001B001B001BC2
:103A8000000E000E00060000000000000000000014
:103A900000000000000080DD80DD80DD0055005565
:103AA000005500770077002200220000000000008F
:103AB00000000000000000000000806100330033BF
:103AC000001E000C000C001E00330033806100005B
:103AD0000000000000000000000000008061806124
:103AE000803100330033001B001B001B000E000E52
:103AF000000E001C007C00700000000000000000B0
:103B00000000C07FC07F800100030006000C001889
:103B10000030C07FC07F00000000000080038007ED
:103B200000060006000600060006000E001C001C31
:103B3000000E00060006000600060006800780034F
:103B40000006000600060006000600060006000645
:103B50000006000600060006000600060006000635
:103B6000000600060038003C000C000C000C000CA5
:103B7000000C000E00070007000E000C000C000CEB
:103B8000000C000C003C00380000000000000000A9
:103B90000000000000008038807F00470000000027
:103BA0000000000000000000000000000000000015
:103BB00000000000010203040607080900000000DD
:103BC00001020304E43B000800000020480000005C
:103BD000081B00082C3C000848000020B808000022
:103BE000181B000801000000000000000000000099
:103BF000000000000000000014000000320000007F
:103C0000640000000000000000000000070A00003F
:103C1000E42600080B120000502E000801000000EE
:0C3C200010000000000000000024F40070
:04000005080000ED02
:00000001FF
